:100000000C9435000C945D000C945D000C945D0024
:100010000C945D000C945D000C945D000C945D00EC
:100020000C945D000C945D000C945D000C945D00DC
:100030000C945D000C945D000C945D000C945D00CC
:100040000C947D010C945D000C94ED010C94C7019F
:100050000C945D000C945D000C945D000C945D00AC
:100060000C945D000C945D00090311241FBECFEFBA
:10007000D8E0DEBFCDBF11E0A0E0B1E0EAECF6E0F1
:1000800002C005900D92A232B107D9F721E0A2E299
:10009000B1E001C01D92AA3CB207E1F710E0C5E350
:1000A000D0E004C02197FE010E945803C433D10759
:1000B000C9F70E941F020C9463030C940000CF92B6
:1000C000DF92EF92FF920F931F93CF93DF936C0118
:1000D0007A018B01C0E0D0E0CE15DF0589F0D801B0
:1000E0006D918D01D601ED91FC910190F081E02D93
:1000F000C6010995892B11F47E0102C02196ECCF2F
:10010000C701DF91CF911F910F91FF90EF90DF908A
:10011000CF900895089580E090E00895FC01538DFC
:10012000448D252F30E0842F90E0821B930B5417D1
:1001300010F0CF96089501970895FC01918D828D5E
:10014000981761F0828DDF01A80FB11D5D968C912B
:10015000928D9F5F9F73928F90E008958FEF9FEF36
:100160000895FC01918D828D981731F0828DE80FF2
:10017000F11D858D90E008958FEF9FEF0895FC01AC
:10018000918D228D892F90E0805C9F4F821B910979
:100190008F73992708958DE291E00E94BF0021E0BE
:1001A000892B09F420E0822F0895FC01848DDF0162
:1001B000A80FB11DA35ABF4F2C91848D90E00196DA
:1001C0008F739927848FA689B7892C93A089B189C9
:1001D0008C9180648C93938D848D981306C00288D3
:1001E000F389E02D80818F7D80830895EF92FF92C7
:1001F0000F931F93CF93DF93EC0181E0888F9B8D4A
:100200008C8D981305C0E889F989808185FD24C00B
:10021000F62E0B8D10E00F5F1F4F0F731127E02E8E
:100220008C8DE8120CC00FB607FCFACFE889F9896B
:10023000808185FFF5CFCE010E94D500F1CF8B8D57
:10024000FE01E80FF11DE35AFF4FF0820B8FEA89A0
:10025000FB898081806207C0EE89FF896083E8891D
:10026000F98980818064808381E090E0DF91CF9183
:100270001F910F91FF90EF900895CF93DF93EC01C2
:10028000888D8823C9F0EA89FB89808185FD05C0B6
:10029000A889B9898C9186FD0FC00FB607FCF5CFF0
:1002A000808185FFF2CFA889B9898C9185FFEDCF38
:1002B000CE010E94D500E7CFDF91CF91089580E075
:1002C00090E0892B29F00E94CB0081110C94000052
:1002D0000895009769F0FC0101900020E9F731973B
:1002E000AF01481B590BBC018DE291E00C945F00FB
:1002F00080E090E008950E945E031F920F920FB677
:100300000F9211242F933F938F939F93AF93BF939B
:100310008091290190912A01A0912B01B0912C018B
:100320003091280123E0230F2D3720F40196A11DE1
:10033000B11D05C026E8230F0296A11DB11D209313
:1003400028018093290190932A01A0932B01B09357
:100350002C018091240190912501A0912601B0915A
:1003600027010196A11DB11D8093240190932501C1
:10037000A0932601B0932701BF91AF919F918F91D8
:100380003F912F910F900FBE0F901F9018951F92C5
:100390000F920FB60F9211242F933F934F935F93B9
:1003A0006F937F938F939F93AF93BF93EF93FF933D
:1003B0008DE291E00E94D500FF91EF91BF91AF9146
:1003C0009F918F917F916F915F914F913F912F916D
:1003D0000F900FBE0F901F9018951F920F920FB69F
:1003E0000F9211242F938F939F93EF93FF93E0919C
:1003F0003D01F0913E018081E0914301F091440183
:1004000082FD12C09081809146018F5F8F73209191
:100410004701821751F0E0914601F0E0E35DFE4FA5
:10042000958F8093460101C08081FF91EF919F914C
:100430008F912F910F900FBE0F901F901895CF9313
:10044000DF93CDB7DEB7A1970FB6F894DEBF0FBE2E
:10045000CDBF789484B5826084BD84B5816084BD4D
:1004600085B5826085BD85B5816085BD80916E0052
:10047000816080936E001092810080918100826083
:1004800080938100809181008160809381008091C0
:1004900080008160809380008091B10084608093AF
:1004A000B1008091B00081608093B00080917A00AB
:1004B000846080937A0080917A00826080937A00D1
:1004C00080917A00816080937A0080917A008068C0
:1004D00080937A001092C100E0913D01F0913E01BD
:1004E00082E08083E0913901F0913A011082E0913D
:1004F0003B01F0913C018FEC808310924501E0912B
:100500004101F091420186E08083E0913F01F0914A
:100510004001808180618083E0913F01F091400142
:10052000808188608083E0913F01F091400180816B
:1005300080688083E0913F01F091400180818F7D50
:1005400080838AE0882E912CA12CB12C8DE291E041
:100550000E94BF00181619060CF058C08DE291E0F9
:100560000E949D00909323018093220182E191E0FB
:100570000E946901C0902201D09023010D2C000C33
:10058000EE08FF08F7FE26C0E0912D01F0912E0144
:100590000190F081E02D6DE28DE291E00995222736
:1005A0003327A9012C193D094E095F0919A28E01B3
:1005B0000F5D1F4FCA01B901A50194010E943603C6
:1005C000605DF80162938F012115310541055105E8
:1005D00089F715C0A701960119A28E010F5D1F4F63
:1005E000CA01B901A50194010E943603605DF801BA
:1005F00062938F01211531054105510589F7C80125
:100600000E9469018FE191E00E9469010E945F01EF
:100610009DCFEDE2F1E01382128288EE93E0A0E03C
:10062000B0E084839583A683B78384E091E09183CF
:10063000808385EC90E09587848784EC90E09787B1
:10064000868780EC90E0918B808B81EC90E0938B9F
:10065000828B82EC90E0958B848B86EC90E0978B7C
:10066000868B118E128E138E148E0895A1E21A2E8F
:10067000AA1BBB1BFD010DC0AA1FBB1FEE1FFF1F46
:10068000A217B307E407F50720F0A21BB30BE40B96
:10069000F50B661F771F881F991F1A9469F76095DD
:1006A0007095809590959B01AC01BD01CF01089597
:1006B000EE0FFF1F0590F491E02D099481E090E08A
:0A06C000F8940C946303F894FFCF44
:1006CA0000000000F6005F008E003D01BF009D00A3
:1006DA00B100492072656365697665643A20000D48
:0206EA000A0004
:107E0000112484B714BE81FFF0D085E080938100F7
:107E100082E08093C00088E18093C10086E0809377
:107E2000C20080E18093C4008EE0C9D0259A86E02C
:107E300020E33CEF91E0309385002093840096BBD3
:107E4000B09BFECF1D9AA8958150A9F7CC24DD24C4
:107E500088248394B5E0AB2EA1E19A2EF3E0BF2EE7
:107E6000A2D0813461F49FD0082FAFD0023811F036
:107E7000013811F484E001C083E08DD089C08234E0
:107E800011F484E103C0853419F485E0A6D080C0E4
:107E9000853579F488D0E82EFF2485D0082F10E0AE
:107EA000102F00270E291F29000F111F8ED06801E7
:107EB0006FC0863521F484E090D080E0DECF843638
:107EC00009F040C070D06FD0082F6DD080E0C81688
:107ED00080E7D80618F4F601B7BEE895C0E0D1E017
:107EE00062D089930C17E1F7F0E0CF16F0E7DF06D8
:107EF00018F0F601B7BEE89568D007B600FCFDCFD4
:107F0000A601A0E0B1E02C9130E011968C91119780
:107F100090E0982F8827822B932B1296FA010C0160
:107F200087BEE89511244E5F5F4FF1E0A038BF0790
:107F300051F7F601A7BEE89507B600FCFDCF97BE46
:107F4000E89526C08437B1F42ED02DD0F82E2BD052
:107F50003CD0F601EF2C8F010F5F1F4F84911BD097
:107F6000EA94F801C1F70894C11CD11CFA94CF0C13
:107F7000D11C0EC0853739F428D08EE10CD085E9AC
:107F80000AD08FE07ACF813511F488E018D01DD067
:107F900080E101D065CF982F8091C00085FFFCCF94
:107FA0009093C60008958091C00087FFFCCF809118
:107FB000C00084FD01C0A8958091C6000895E0E648
:107FC000F0E098E1908380830895EDDF803219F02E
:107FD00088E0F5DFFFCF84E1DECF1F93182FE3DFCA
:107FE0001150E9F7F2DF1F91089580E0E8DFEE27F6
:047FF000FF270994CA
:027FFE00040479
:0400000300007E007B
:00000001FF
