:100000000C945C000C946E000C946E000C946E00CA
:100010000C946E000C946E000C946E000C946E00A8
:100020000C946E000C946E000C946E000C946E0098
:100030000C946E000C946E000C946E000C946E0088
:100040000C9470000C946E000C946E000C946E0076
:100050000C946E000C946E000C946E000C946E0068
:100060000C946E000C946E00000000002400270029
:100070002A0000000000250028002B0004040404CE
:100080000404040402020202020203030303030342
:10009000010204081020408001020408102001021F
:1000A00004081020000000080002010000030407FB
:1000B000000000000000000011241FBECFEFD8E0B8
:1000C000DEBFCDBF21E0A0E0B1E001C01D92A930AC
:1000D000B207E1F70E94BA000C9461010C94000091
:1000E0001F920F920FB60F9211242F933F938F936D
:1000F0009F93AF93BF938091050190910601A091CA
:100100000701B09108013091040123E0230F2D373E
:1001100020F40196A11DB11D05C026E8230F02960B
:10012000A11DB11D20930401809305019093060148
:10013000A0930701B0930801809100019091010103
:10014000A0910201B09103010196A11DB11D809300
:10015000000190930101A0930201B0930301BF91AC
:10016000AF919F918F913F912F910F900FBE0F9064
:100170001F901895789484B5826084BD84B58160A1
:1001800084BD85B5826085BD85B5816085BD809162
:100190006E00816080936E001092810080918100DA
:1001A00082608093810080918100816080938100D2
:1001B000809180008160809380008091B100846094
:1001C0008093B1008091B00081608093B0008091F5
:1001D0007A00846080937A0080917A0082608093B4
:1001E0007A0080917A00816080937A0080917A0011
:1001F000806880937A001092C1004DE950E0FA01C6
:10020000649189E890E0FC012491222399F030E088
:10021000220F331FF901E859FF4FA591B4912E58D1
:100220003F4FF901C591D4912FB7F8943C91632BBE
:100230006C932FBFE1EBF0E02491FA014491FC01B3
:1002400094919923B9F1222339F1233091F038F4B4
:100250002130A9F0223001F584B58F7D12C02730FE
:1002600091F02830A1F02430B9F4809180008F7D86
:1002700003C0809180008F77809380000DC084B58B
:100280008F7784BD09C08091B0008F7703C08091C3
:10029000B0008F7D8093B000E92FF0E0EE0FFF1FDC
:1002A000EE58FF4FA591B4918FB7F8949C91492BCC
:1002B0004C938FBFC0E0D0E02097F1F30E94000084
:0602C000FBCFF894FFCF14
:107E0000112484B714BE81FFF0D085E080938100F7
:107E100082E08093C00088E18093C10086E0809377
:107E2000C20080E18093C4008EE0C9D0259A86E02C
:107E300020E33CEF91E0309385002093840096BBD3
:107E4000B09BFECF1D9AA8958150A9F7CC24DD24C4
:107E500088248394B5E0AB2EA1E19A2EF3E0BF2EE7
:107E6000A2D0813461F49FD0082FAFD0023811F036
:107E7000013811F484E001C083E08DD089C08234E0
:107E800011F484E103C0853419F485E0A6D080C0E4
:107E9000853579F488D0E82EFF2485D0082F10E0AE
:107EA000102F00270E291F29000F111F8ED06801E7
:107EB0006FC0863521F484E090D080E0DECF843638
:107EC00009F040C070D06FD0082F6DD080E0C81688
:107ED00080E7D80618F4F601B7BEE895C0E0D1E017
:107EE00062D089930C17E1F7F0E0CF16F0E7DF06D8
:107EF00018F0F601B7BEE89568D007B600FCFDCFD4
:107F0000A601A0E0B1E02C9130E011968C91119780
:107F100090E0982F8827822B932B1296FA010C0160
:107F200087BEE89511244E5F5F4FF1E0A038BF0790
:107F300051F7F601A7BEE89507B600FCFDCF97BE46
:107F4000E89526C08437B1F42ED02DD0F82E2BD052
:107F50003CD0F601EF2C8F010F5F1F4F84911BD097
:107F6000EA94F801C1F70894C11CD11CFA94CF0C13
:107F7000D11C0EC0853739F428D08EE10CD085E9AC
:107F80000AD08FE07ACF813511F488E018D01DD067
:107F900080E101D065CF982F8091C00085FFFCCF94
:107FA0009093C60008958091C00087FFFCCF809118
:107FB000C00084FD01C0A8958091C6000895E0E648
:107FC000F0E098E1908380830895EDDF803219F02E
:107FD00088E0F5DFFFCF84E1DECF1F93182FE3DFCA
:107FE0001150E9F7F2DF1F91089580E0E8DFEE27F6
:047FF000FF270994CA
:027FFE00040479
:0400000300007E007B
:00000001FF
